:020000040000FA
:100000000C944A050C9472050C9472050C947205BC
:100010000C9472050C9472050C9472050C94720584
:100020000C9472050C9472050C9472050C94720574
:100030000C9472050C9472050C9472050C94720564
:100040000C9453150C9472050C9472050C94720563
:100050000C9472050C9472050C9472050C94720544
:100060000C949D150C947205000103070F1F3F7F30
:100070000080C0E0F0F8FCFE00000000003E5B4F96
:100080005B3E3E6B4F6B3E1C3E7C3E1C183C7E3CF8
:10009000181C577D571C1C5E7F5E1C00183C180006
:1000A000FFE7C3E7FF0018241800FFE7DBE7FF3096
:1000B000483A060E2629792926407F050507407F04
:1000C00005253F5A3CE73C5A7F3E1C1C08081C1C77
:1000D0003E7F14227F22145F5F005F5F06097F016D
:1000E0007F006689956A606060606094A2FFA29458
:1000F00008047E040810207E201008082A1C080826
:100100001C2A08081E101010100C1E0C1E0C303873
:100110003E3830060E3E0E06000000000000005F74
:1001200000000007000700147F147F14242A7F2A90
:100130001223130864623649562050000807030052
:10014000001C2241000041221C002A1C7F1C2A089E
:10015000083E080800807030000808080808000001
:1001600060600020100804023E5149453E00427F75
:10017000400072494949462141494D331814127FC4
:100180001027454545393C4A494931412111090764
:100190003649494936464949291E000014000000E5
:1001A00040340000000814224114141414140041B7
:1001B00022140802015909063E415D594E7C121174
:1001C000127C7F494949363E414141227F414141AC
:1001D0003E7F494949417F090909013E4141517327
:1001E0007F0808087F00417F41002040413F017F98
:1001F000081422417F404040407F021C027F7F0460
:1002000008107F3E4141413E7F090909063E4151A8
:10021000215E7F09192946264949493203017F0198
:10022000033F4040403F1F2040201F3F4038403F99
:10023000631408146303047804036159494D4300AF
:100240007F4141410204081020004141417F0402E6
:10025000010204404040404000030708002054547D
:1002600078407F284444383844444428384444285B
:100270007F385454541800087E090218A4A49C78AE
:100280007F0804047800447D40002040403D007F0A
:100290001028440000417F40007C047804787C08EA
:1002A0000404783844444438FC18242418182424BE
:1002B00018FC7C08040408485454542404043F44A3
:1002C000243C4040207C1C2040201C3C4030403CD2
:1002D00044281028444C9090907C4464544C440032
:1002E0000836410000007700000041360800020196
:1002F0000204023C2623263C1EA1A161123A404082
:10030000207A3854545559215555794122545478FE
:1003100042215554784020545579400C1E52721297
:100320003955555559395454545939555454580020
:1003300000457C410002457D420001457C407D1224
:1003400011127DF0282528F07C5455450020545486
:100350007C547C0A097F4932494949323A44444431
:100360003A324A4848303A4141217A3A424020786C
:10037000009DA0A07D3D4242423D3D4040403D3C6D
:1003800024FF2424487E4943662B2FFC2F2BFF0992
:1003900029F620C0887E0903205454794100004486
:1003A0007D413048484A32384040227A007A0A0A71
:1003B000727D0D19317D2629292F282629292926E4
:1003C00030484D4020380808080808080808382F29
:1003D00010C8ACBA2F102834FA00007B00000814B3
:1003E0002A142222142A14085500550055AA55AA89
:1003F00055AAFF55FF55FF000000FF00101010FF29
:1004000000141414FF001010FF00FF1010F010F083
:10041000141414FC001414F700FF0000FF00FF1474
:1004200014F404FC141417101F10101F101F1414C0
:10043000141F00101010F0000000001F101010100A
:100440001F10101010F010000000FF1010101010FE
:1004500010101010FF10000000FF140000FF00FF3C
:1004600000001F10170000FC04F4141417101714D8
:1004700014F404F40000FF00F714141414141414FA
:10048000F700F7141414171410101F101F1414146D
:10049000F4141010F010F000001F101F0000001FD7
:1004A00014000000FC140000F010F01010FF10FF0A
:1004B000141414FF141010101F00000000F010FF9F
:1004C000FFFFFFFFF0F0F0F0F0FFFFFF0000000083
:1004D00000FFFF0F0F0F0F0F3844443844FC4A4A07
:1004E0004A347E02020606027E027E0263554941BC
:1004F000633844443C04407E201E2006027E0202F3
:1005000099A5E7A5991C2A492A1C4C7201724C3006
:100510004A4D4D303048784830BC625A463D3E49DD
:100520004949007E0101017E2A2A2A2A2A44445F81
:10053000444440514A444040444A51400000FF0175
:1005400003E080FF000008086B6B08361236243683
:10055000060F090F060000181800000010100030E8
:1005600040FF0101001F01011E00191D1712003C70
:100570003C3C3C0000000000DB40A4A62EAF200065
:10058000A1C8D300408DAED580A800006000000057
:100590000000000000000000000000E0000000007B
:1005A00000000000000000000001E000000000006A
:1005B000000000000000000001F00000000000004A
:1005C0000000000000000003F00000000000000038
:1005D00000000000000007F0000000000000000024
:1005E000000000000007F80000000000000000000C
:1005F000000000000FF800000003C0007E000001B2
:10060000E0007F0FF800000003C000FE000001E0E2
:1006100000FFEFF800000003C000FE000001E00052
:10062000FFFFF800000003C000F00000000F007F93
:10063000FE7FC0000003C000F00000000F003FFE7E
:100640007FF83FF1FBCFFCFEF3BC3DEFE01FFE7FE8
:10065000FF7FFBFFDFFEFEFFBC3DEFE01FC6FFFF9D
:100660007FFBFFDFFEFEFFBC3DEFE00FE3C7FE7840
:100670007BC3DE1EF0FFBC3DEF0007FF87FC787BED
:10068000C3DE1EF0F83C3DEF0001FFFFF0007BC32E
:10069000C01EF0F03C3DEF0001F37FE03FFBC3CF15
:1006A000FEF0F03C3DEF0003E33F807FFBC3DFFE45
:1006B000F0F03C3DEF0007E73C00787BC3DE1EF026
:1006C000F03C3DEF0007FFBE00787BC3DE1EF0F07C
:1006D0003C3DEF0007FFFE00787BC3DE1EF0F03CE0
:1006E0003DEF000FFFFE007FFBFFDFFEF0F03FFD60
:1006F000EFE00FFFFF007FFBFFDFFEF0F03FFDEFBD
:10070000E00FF9FF003E79F9CF9EF0F01F3DE7E0E2
:100710001FF1FF0000000000000000000000001FAB
:1007200080FF007FFFFFFFFFFFFFFFFFFFE01C00D8
:100730007F007FFFFFFFFEB46D888D18E000001F73
:10074000007FFFFFFFFE95AD7DB577E000000F0055
:100750007FFFFFFFFEA5AD9D8D19E0000006007F25
:10076000FFFFFFFEB5ADEDB57EE00000000000012B
:100770008000000000000000000003800000000076
:10078000000000000007C0000000000000000000A2
:1007900007C00000000000000000000FC0000000C3
:1007A0000000000000001FE000000000000000004A
:1007B000001FE00000000000000000003FE000001B
:1007C000000000000000003FF000000000000000FA
:1007D00000007FF0000000000000001FF87FF00024
:1007E0000000000000003FFE7FF00000000000005D
:1007F000003FFF7FF0000000000000001FFFFBE053
:10080000000000000000000FFFF9FFC00000000022
:1008100000000FFFF9FFF800000000000007FFF1E3
:10082000FFFF00000000000003FC73FFFF800000DA
:1008300000000001FE3FFFFF80000000000000FFFD
:100840001E0FFF000000000000007FFE1FFC0000E4
:1008500000000000003FFFFFF80000000000000063
:100860000FDFFFE0000000000000001F19FFC000C4
:100870000000000000003F3CFF00000000000000FE
:10088000007E7CF800000000000000007FFE7C007D
:1008900000000000000000FFFFFC0000000000005E
:1008A0000000FFFFFE0000000000000000FFFFFE50
:1008B0000000000000000001FFEFFE00000000004B
:1008C000000001FFCFFE0000000000000003FF0752
:1008D000FE0000000000000003FC07FE0000000016
:1008E00000000003F003FE00000000000000018093
:1008F00000FE000000000000000000007E0000007C
:10090000000000000000003E0000000000000000A9
:1009100000000C000000000000078000FC00000345
:10092000C0000000078001FC000003C000000007B9
:100930008001FC000003C0000000078001E000000F
:10094000001E000000078001E00000001E007FE3A1
:10095000F79FF9FDE7787BDFC0FFF7FFBFFDFDFFE5
:10096000787BDFC0FFF7FFBFFDFDFF787BDFC0F0C6
:10097000F787BC3DE1FF787BDE00F0F787BC3DE107
:10098000F0787BDE0000F787803DE1E0787BDE00D9
:100990007FF7879FFDE1E0787BDE00FFF787BFFDF3
:1009A000E1E0787BDE00F0F787BC3DE1E0787BDEBC
:1009B00000F0F787BC3DE1E0787BDE00F0F787BC14
:1009C0003DE1E0787BDE00FFF7FFBFFDE1E07FFB6C
:1009D000DFC0FFF7FFBFFDE1E07FFBDFC07CF3F38B
:1009E0009F3DE1E03E7BCFC0000000000000000022
:1009F000000000FFFFFFFFFFFFFFFFFFFFC0FFFF43
:100A0000FFFFFD68DB111A31C0FFFFFFFFFD2B5A0E
:100A1000FB6AEFC0FFFFFFFFFD4B5B3B1A33C0FFDC
:100A2000FFFFFFFD6B5BDB6AFDC0000102030405F5
:100A300000000000240027002A000000000025001C
:100A400028002B00000000002300260029000404D9
:100A50000404040404040202020202020303030366
:100A60000303010204081020408001020408102042
:100A70000102040810200000000800020100000329
:100A8000040700000000000000002200FF21000019
:100A9000BC16421C11241FBECFEFD8E0DEBFCDBF75
:100AA00011E0A0E0B1E0E8EEFBE302C005900D929A
:100AB000A039B107D9F722E0A0E9B1E001C01D9249
:100AC000AD3DB207E1F715E0C9E4D5E004C02197D8
:100AD000FE010E94B01CC834D107C9F70E943D171F
:100AE0000C94E71D0C9400000895833081F028F4E5
:100AF000813099F08230A9F008958730A9F08830CC
:100B0000C9F08430B1F4809180008F7D03C0809162
:100B100080008F7780938000089584B58F7784BD9F
:100B2000089584B58F7DFBCF8091B0008F7780933F
:100B3000B00008958091B0008F7DF9CFCF93DF93FF
:100B4000282F30E0F901EA58F54F8491F901EE5968
:100B5000F54FD491F901E25BF54FC491CC23A1F09C
:100B600081110E947505EC2FF0E0EE0FFF1FEC5B8A
:100B7000F54FA591B491EC91ED2381E090E009F45B
:100B800080E0DF91CF91089580E090E0FACF1F934D
:100B9000CF93DF93282F30E0F901EA58F54F849185
:100BA000F901EE59F54FD491F901E25BF54FC4918B
:100BB000CC23A9F0162F81110E947505EC2FF0E0CF
:100BC000EE0FFF1FE65CF54FA591B4918FB7F89437
:100BD000EC91111108C0D095DE23DC938FBFDF911B
:100BE000CF911F910895DE2BF8CF682F809171026D
:100BF0000E94C7058091890290918A0282309105F6
:100C000038F0880F991F880F991F05970197F1F702
:100C1000089520916F0230917002409171025091BD
:100C200072022417350721F0682F822F0C94C70514
:100C30000895CF93DF9390E0FC01EE59F54F249196
:100C4000825B954FFC0184918823D1F090E0880F5E
:100C5000991FFC01E05DF54FA591B491FC01E65CA4
:100C6000F54FC591D49161110EC09FB7F8948C9146
:100C7000E22FE0958E238C932881E223E8839FBFA7
:100C8000DF91CF9108958FB7F894EC91E22BEC931C
:100C90008FBFF6CF8E50806480937C0080917A0065
:100CA000806480937A0080917A0086FDFCCF8091E9
:100CB00078009091790008953FB7F894809164028C
:100CC00090916502A0916602B091670226B5A89B3B
:100CD00005C02F3F19F00196A11DB11D3FBFBA2FCE
:100CE000A92F982F8827BC01CD01620F711D811D8E
:100CF000911D42E0660F771F881F991F4A95D1F713
:100D000008958F929F92AF92BF92CF92DF92EF920F
:100D1000FF924B015C010E945C066B017C010E940A
:100D20005C066C197D098E099F09683E7340810538
:100D30009105A8F321E0821A9108A108B10888EE74
:100D4000C80E83E0D81EE11CF11C81149104A1049B
:100D5000B10429F7FF90EF90DF90CF90BF90AF9054
:100D60009F908F90089508950895AF92BF92CF926B
:100D7000DF92EF92FF920F931F93CF93DF936C015B
:100D80007B018B01040F151FEB015E01AE18BF083C
:100D9000C017D10759F06991D601ED91FC910190EE
:100DA000F081E02DC6010995892B79F7C501DF9106
:100DB000CF911F910F91FF90EF90DF90CF90BF9058
:100DC000AF9008950895FC016370668B84819581CE
:100DD00026813781613039F0633029F0918780872F
:100DE00033872287089531872087938782870895E4
:100DF0002F923F924F925F926F927F928F929F922B
:100E0000AF92BF92CF92DF92EF92FF920F931F9318
:100E1000CF93DF93CDB7DEB76A970FB6F894DEBFF6
:100E20000FBECDBF9A8F898F7A8369834A01D22EF4
:100E300018870F833701BC2CDC0159962D913C910A
:100E40005A972115310509F015C118968D919C917D
:100E50001997681779070CF0D7C11A968D919C9154
:100E6000481759070CF0D0C14C2C512CB6E0CB9E42
:100E7000600D711D11247C876B87161617060CF008
:100E8000C3C1EA2DF0E0FA87E98793E0EE0FFF1F78
:100E90009A95E1F7F88BEF87CF01840F951F18160D
:100EA00019060CF0B1C1A98DBA8D58968C9181119B
:100EB00004C0BFEABD1508F4D394A98DBA8DED9195
:100EC000FC9111970284F385E02DCD010995B5E0E1
:100ED000DB9EC0011124E981FA81FC83EB83312C74
:100EE000212C9C0128583F4F388F2F8B4A2D50E0E2
:100EF0005E8B4D8BEF89F88DE20DF31D44919E8240
:100F00008D82D12CC12C69817A81620D731D7A8BFF
:100F1000698B842F90E09C8B8B8BE98DFA8DA0815F
:100F2000B18140FF82C0F1E0BF126FC0AF126DC04F
:100F30001C96ED91FC912F813885A4014C0D5D1D0F
:100F400069897A89898D9A8D0995EB89FC89F5954E
:100F5000E7954E2F5FEFC51AD50A6D817E818D8989
:100F60009E89680F791F7E836D8398E0C916D1042E
:100F700081F6AFEF2A1A3A0AEB81FC81E40DF51DE8
:100F8000FC83EB83F5E02F16310409F0B3CF2F81FA
:100F9000388526153705B9F0A98DBA8DED91FC91EC
:100FA000B1E0BB1257C0AB1255C069817A816B5F4B
:100FB0007F4F0088F189E02D830128E030E0A40113
:100FC000898D9A8D0995A98DBA8DED91FC91119716
:100FD0000688F789E02DCD016A960FB6F894DEBF3A
:100FE0000FBECDBFDF91CF911F910F91FF90EF907A
:100FF000DF90CF90BF90AF909F908F907F906F9039
:101000005F904F903F902F9009941E96ED91FC9128
:10101000EF80F88409851A8592014D815E816B818C
:101020007C81898D9A8D099590CF2F8138852615E1
:10103000370509F48ACF31E0B31207C0A31205C007
:101040001C96ED91FC91930178CF1E96ED91FC9149
:101050007301E0CF6B857C85641975090684F7857B
:10106000E02D73010F8518899201A401898D9A8D55
:101070000995A9CFF90134969491329745915491ED
:10108000D91AB7E0DB9E400D511D1124F9012591BD
:1010900034913C8B2B8BFA0125903490FA013296D7
:1010A000749031963491398B329664903196449095
:1010B00041E04C1518F04A1508F07FC0662D062C4B
:1010C000000C770B7C836B83842D042C000C990B14
:1010D0009E838D83A98DBA8DED91FC911197028429
:1010E000F385E02DCD010995512CD12CC12CEA2D91
:1010F000F0E0FA87E9872B2D30E03C872B87A401AD
:10110000440D511D47FC5A95588F4F8B69817A8148
:10111000660D711D67FC7A957E876D877989C71684
:1011200008F051CF2C2D30E04D815E81420F531FCE
:10113000A985BA854A9FC0014B9F900D5A9F900D7B
:101140001124FC01E80DF91DF88BEF87852D612C2A
:101150004F89588D420F531F5E8B4D8B671408F0DB
:1011600050C044244394480E877041F4C101019655
:10117000EB89FC89E20DF31DD4901C01D7FE19C048
:10118000A98DBA8DED91FC91662D70E0B1E0BB1296
:1011900019C0AB1217C02D853E85620F731F0484E2
:1011A000F585E02D2F8138854D895E89898D9A8D51
:1011B0000995DD0C6394842DD1CF1E821D821C8283
:1011C0001B8288CF4B815C81640F751FAB85BC850A
:1011D0006A9FC0016B9F900D7A9F900D11246981C9
:1011E0007A81680F791F0684F785E02DEF80F884F7
:1011F00009851A859D014F855889898D9A8D099594
:10120000D8CF570CC3948ACF6A960FB6F894DEBF36
:101210000FBECDBFDF91CF911F910F91FF90EF9047
:10122000DF90CF90BF90AF909F908F907F906F9006
:101230005F904F903F902F9008958F929F92AF9222
:10124000CF92EF92FF920F931F93CF93DF93EC0116
:10125000262F898D9A8D009709F051C06A30D1F4FC
:101260001D861C868D8948E0849F900111248E85FF
:101270009F85820F931F9F878E8781E090E0DF918B
:10128000CF911F910F91FF90EF90CF90AF909F90D3
:101290008F9008956D3089F3CC88AD888F8988232D
:1012A000C1F08C859D8536E0C39E800D911D112473
:1012B000488559854817590764F44E855F851D8612
:1012C0001C8638E0A39EC0011124840F951F9F87C0
:1012D0008E87EA88FB88088919894E855F856C8529
:1012E0007D85CE010E94F8062C898C859D8546E07F
:1012F000249F800D911D11249D878C87BECF6A305D
:1013000069F41D861C86FC013896E4912D898E8532
:101310009F85E29F800D911D1124ADCF6D3009F4A2
:10132000ACCFFC0134963491631708F4A6CF329603
:10133000E491E61708F4A1CFFC01329685909490D1
:10134000462F431B342F47E0349F800C911C1124FF
:10135000F401329634913196E4913323A9F1EE23CE
:1013600099F1CC88F4013596E491AD884F894423F6
:1013700001F10E2E000CFF0BE30FF11DCE9EA0011C
:10138000CF9E500D11246C857D85460F571F6885B3
:101390007985641775076CF44E855F851D861C86FC
:1013A000FC013896E491AE9E400D511D11245F87DB
:1013B0004E87EA88FB88088919894E855F856C8588
:1013C0007D85CE010E94F806F4013496E4912C89C3
:1013D0008C859D85E29F800D911D11248DCF6F928C
:1013E0007F928F929F92AF92BF92CF92DF92EF92B5
:1013F000FF920F931F93CF93DF93EC016B015A0180
:1014000039014801E881F9810284F385E02D0995CD
:10141000E881F9810288F389E02D87019301A50114
:10142000B601CE010995A501480D591D415051093C
:10143000E881F9810288F389E02D9301B601CE019C
:101440000995E881F9810088F189E02D9401A501D1
:10145000B601CE010995C60CD71CB60161507109C1
:10146000E881F9810088F189E02D9401A501CE0180
:101470000995E881F9810688F789E02DCE01DF9191
:10148000CF911F910F91FF90EF90DF90CF90BF9081
:10149000AF909F908F907F906F9009946F927F9202
:1014A0008F929F92AF92BF92CF92DF92EF92FF9274
:1014B0000F931F93CF93DF935C01EB016A01490106
:1014C00038018701DC01ED91FC916217730719F572
:1014D000641675062CF0962D872D3A01C92ED82E4C
:1014E0009601261937092F5F3F4F048CF58DE02DAB
:1014F000A301BE01C5010995DF91CF911F910F9105
:10150000FF90EF90DF90CF90BF90AF909F908F9023
:101510007F906F9008954615570591F42617370769
:1015200024F0892D4B01C22FD82F9E01281939098B
:101530002F5F3F4F068CF78DE02DA601B401DACF67
:101540000284F385E02D0995D501ED91FC91048885
:10155000F589E02D83019401A601BE01C50109951D
:10156000D501ED91FC910688F789E02DC501DF9149
:10157000CF911F910F91FF90EF90DF90CF90BF9090
:10158000AF909F908F907F906F900994EF92FF9211
:101590000F931F93DC011A960D911C911B971896BF
:1015A0002D913C911997ED91FC9100A0F1A1E02DB6
:1015B0007B0150E040E070E060E009951F910F91E1
:1015C000FF90EF9008954F925F926F927F928F926B
:1015D0009F92AF92BF92CF92DF92EF92FF920F93C2
:1015E0001F93CF93DF936C012B015A0139014801FE
:1015F000DC01ED91FC910284F385E02D0995E20177
:10160000640C751CD601ED91FC91C615D7055CF4F0
:101610000088F189E02D87019401A501BE01C60172
:1016200009952196EFCF0688F789E02DC601DF9155
:10163000CF911F910F91FF90EF90DF90CF90BF90CF
:10164000AF909F908F907F906F905F904F90099494
:101650008F929F92AF92BF92CF92DF92EF92FF92C2
:101660000F931F93CF93DF93EC015B014A01690154
:10167000E881F9810284F385E02D099595012C0D0F
:101680003D1D21503109E881F9810488F589E02D5B
:1016900078018401A401B501CE010995E881F981A1
:1016A0000688F789E02DCE01DF91CF911F910F9130
:1016B000FF90EF90DF90CF90BF90AF909F908F9072
:1016C00009948F929F92AF92BF92CF92DF92EF9246
:1016D000FF920F931F93CF93DF93EC015B014A01BD
:1016E00069017801E881F9810284F385E02D09958B
:1016F000C80CD91C860101501109E881F9810488C0
:10170000F589E02D9501A401B501CE010995E88187
:10171000F9810688F789E02DCE01DF91CF911F91E5
:101720000F91FF90EF90DF90CF90BF90AF909F9080
:101730008F900994EF92FF920F931F93DC01ED912C
:10174000FC9100A0F1A1E02D09951F910F91FF9050
:10175000EF9008950F931F93DC01ED91FC91068C9F
:10176000F78DE02D09951F910F9108950F931F9309
:10177000DC01ED91FC91048CF58DE02D09951F9114
:101780000F910895DC01ED91FC910084F185E02D2D
:1017900009943F924F925F926F927F928F929F92A5
:1017A000AF92BF92CF92DF92EF92FF920F931F936F
:1017B000CF93DF935C017B014A016901390187E026
:1017C000680E711C93E0759467949A95E1F72B016C
:1017D000400E511E10E000E0312CD0E0C0E0CE0100
:1017E00087709927330C892B59F4FE0183E0F59516
:1017F000E7958A95E1F7E00FF11FE80DF91D3490A8
:1018000037FE0AC021E030E0A701B5016C0F7D1F53
:1018100089E992E00E94C20B2196CC16DD06F9F60A
:101820008FEFE81AF80A060D171DE414F504A9F65F
:10183000DF91CF911F910F91FF90EF90DF90CF90AC
:10184000BF90AF909F908F907F906F905F904F90E0
:101850003F9008952F923F924F925F926F927F92A6
:101860008F929F92AF92BF92CF92DF92EF92FF92B0
:101870000F931F93CF93DF9300D000D000D0CDB74C
:10188000DEB73C016A013E832D83FC82EB82580166
:10189000A41AB50AB7FE03C0B194A194B1088D8013
:1018A0009E80861A970A97FE03C0919481949108AE
:1018B0008A149B045CF0902F812F0D811E819D83E3
:1018C0008E839C2D8D2D6B01692F782F0C151D0596
:1018D0005CF09D818E817E836D83692F782F902FA0
:1018E000812F8601C92ED82E1601201A310A2B010C
:1018F0002D813E81421A530A57FE03C051944194F0
:101900005108710137FE03C03FEFE31AF30AF59463
:10191000E7948D819E81861797075CF5A1E0B0E082
:10192000BA83A983C016D1064CF1D301ED91FC9185
:101930000484F585E02D2B813C81A8016D817E8199
:101940008A149B041CF04D815E81B801C301099586
:10195000E418F508F7FE0AC02D813E8189819A813D
:10196000280F391F3E832D83E20CF31C0F5F1F4F9E
:10197000D9CF2FEF3FEF3A832983D4CF26960FB6E6
:10198000F894DEBF0FBECDBFDF91CF911F910F91B5
:10199000FF90EF90DF90CF90BF90AF909F908F908F
:1019A0007F906F905F904F903F902F900895EF92AF
:1019B000FF920F931F93CF93DF93EC01EC80FD8098
:1019C0006E157F050CF070C057FF04C0240F351F43
:1019D00050E040E08E819F81FA01E20FF31F8E17E5
:1019E0009F071CF49C01241B350B121613060CF0E8
:1019F0005BC0922F842F8695869586958E9DD0010B
:101A00008F9DB00D11246A0F7B1FAF8DB8A1A60F5B
:101A1000B71F477049F188E0841B482F682F70E09A
:101A2000FB01E059FF4FE491281708F063C0621BE7
:101A300071092FEF30E002C0359527956A95E2F7DE
:101A4000E2230130110539F0B0F10230110561F5E2
:101A50008C91E82702C08C91E82BEC93941720F12D
:101A60002C813D81A20FB31FE92FE41BE83078F0F1
:101A70000230110521F58E2F9C9190959C932C811D
:101A80003D81A20FB31F88508830B0F7E770EE2376
:101A900059F0F0E0E859FF4FE49101301105F9F0F9
:101AA00010F10230110519F1DF91CF911F910F91C3
:101AB000FF90EF900895E0958C91E823CECF81E0E0
:101AC0000115110509F480E081959E2F8C932C81DE
:101AD0003D81A20FB31F98509830C0F7D7CF8C919B
:101AE000E82BEC93E1CFE0958C91E823FACF8C9131
:101AF000E827F7CF0130110509F4ADCFE0F202304D
:101B0000110509F4A5CFAE0DBF1DAECF0F931F93E6
:101B1000CF93DF9377FF04C0260F371F70E060E09C
:101B2000DC011496CD91DC91FB01E20FF31FCE177F
:101B3000DF071CF49E01261B370B121613064CF50B
:101B4000FA0157FD3796A3E0F595E795AA95E1F7D9
:101B5000EC9FD001ED9FB00DFC9FB00D11246A0FDA
:101B60007B1FDC015F96ED91FC91E60FF71F47703C
:101B7000552781E090E001C0880F4A95EAF7482F89
:101B80000130110559F0A8F02E0F3F1F023011054A
:101B9000E1F0DF91CF911F910F9108952E0F3F1F1C
:101BA000E217F307B1F38191DF011197842B8C9336
:101BB000F7CF80952E0F3F1FE217F30751F3919156
:101BC000DF01119798239C93F7CFE217F30709F3EE
:101BD0008191DF01119784278C93F7CF0F931F9387
:101BE000FA01DC0156964C9156974230E9F04330A9
:101BF000A1F1413061F514964D915C91DA01AE1B73
:101C0000BF0BFD01E21BF30B77FD0BC0DC01169649
:101C10004D915C916417750724F4AB01BF010E94DC
:101C2000860D1F910F91089514964D915C91DA01E4
:101C3000A61BB70BBD0161507109DC0116964D91D1
:101C40005C91DA01AE1BBF0BFD01E21BF30B77FDCC
:101C5000E8CFAF010E94D70CE4CF16964D915C916E
:101C6000DA01A61BB70BBD0161507109CDCF0F93EF
:101C70001F93FA01DC0156964C9156974230A9F019
:101C8000433091F1413019F514964D915C91DA0190
:101C9000AE1BBF0BFD013197F7FD04C0AB01BF01C7
:101CA0000E94D70C1F910F91089514964D915C914D
:101CB000DA01A61BB70BBD01DC0116964D915C91B4
:101CC000DA01AE1BBF0BFD013197621B730BF7FDF1
:101CD000E9CFDC0116964D915C91E417F50714F7F6
:101CE000AF010E94860DDECF16964D915C91DA0110
:101CF000A61BB70BBD01621B730BCECFFC0177FD9A
:101D000064C080859185681779070CF05EC057FD27
:101D10005CC082859385481759070CF056C08689A8
:101D20008230B1F0833029F1813041F48481958192
:101D3000841B950BAB01BC01615071092130310549
:101D400009F108F443C02230310509F463C0089555
:101D500084819581DC01A61BB70BBD01615071091F
:101D600086819781DC01A41BB50BAD01415051095F
:101D7000E5CF86819781861B970BBA01AC01415054
:101D80005109DCCFCA0157FD0796A3E095958795C9
:101D9000AA95E1F7A481B5818A9F90018B9F300DB0
:101DA0009A9F300D1124620F731F078CF0A1E02D54
:101DB000E60FF71F4770552721E030E001C0220FE2
:101DC0004A95EAF78081822B80830895CA0157FDE6
:101DD000079633E0959587953A95E1F7A481B5810B
:101DE0008A9F90018B9F300D9A9F300D1124620FB6
:101DF000731F078CF0A1E02DE60FF71F47705527E2
:101E000081E090E001C0880F4A95EAF780959081C3
:101E10008923DACFCA0157FD079623E09595879568
:101E20002A95E1F7A481B5818A9F90018B9F300D9F
:101E30009A9F300D1124620F731F078CF0A1E02DC3
:101E4000E60FF71F4770552721E030E001C0220F51
:101E50004A95EAF780818227B7CF089581E00C94F4
:101E6000F5058EBD00000DB407FEFDCF8EB50895BB
:101E70008CBD9DBD089508952091F701260F33274D
:101E8000331F21323105ECF420911B02FC0190E05C
:101E900080E0243069F082E00895A091F70121915B
:101EA000AC0149525E4FA40FB52FB11D2C93019682
:101EB000861798F38091F701680F6093F70180E02F
:101EC000089581E0089510921B0281E080931D0225
:101ED00010921C0261E082E10E94C70561E083E18B
:101EE0000E94C705E9EBF0E080818E7F80838081CE
:101EF0008D7F808388E48093B80085E48093BC0064
:101F00000895CF93DF9391E09093D6018823B9F0A1
:101F1000C091B800D091BA008091BC008A7B8093B8
:101F2000BC0060E082E10E94C70560E083E10E949E
:101F3000C7050E94630FD093BA00C093B800DF9129
:101F4000CF910895E091460280914502E81730F460
:101F5000F0E0EF54FE4F808190E008958FEF9FEF07
:101F6000089590914602809145022FEF3FEF981718
:101F700048F4E92FF0E0EF54FE4F208130E09F5FFE
:101F800090934602C90108958091450290914602BE
:101F9000891B990B0895CF92DF92EF92FF920F93D6
:101FA0001F93CF93DF937C01CB018A0120916B02B9
:101FB000222389F0EB016B01C40ED51ECC15DD0583
:101FC00069F06991D701ED91FC910190F081E02DCC
:101FD000C7010995F3CF642F0E943C0FC801DF9120
:101FE000CF911F910F91FF90EF90DF90CF900895C8
:101FF000CF93DF931F92CDB7DEB7698320916B0239
:102000002223F9F020916802203258F021E030E0DC
:10201000FC013383228390E080E00F90DF91CF9129
:10202000089580916902E82FF0E0EF56FE4F998104
:1020300090838F5F809369028093680281E090E0D3
:10204000ECCF61E0CE0101960E943C0FF7CFCF921A
:10205000DF92EF92FF920F931F93CF93DF93D09174
:10206000680281E0D13208F09CC0C0916A020E94EF
:102070005C066B017C0180911B0281116CC082E0C7
:1020800080931B0281E080931D028FEF80931A02E0
:1020900010923F02D0933E02A1E9B1E0EEE1F2E0FE
:1020A00080E0D8138DC01092400280914002CC0F86
:1020B000C82BC093400280911C02813009F084C07B
:1020C00010921C020E945C066B017C018091400210
:1020D0008093BB008091D2019091D301A091D40153
:1020E000B091D501892B8A2B8B2BA1F00E945C0625
:1020F0000091D2011091D3012091D4013091D501EA
:102100006C197D098E099F090617170728073907DB
:1021100008F442C08091BC0083FDD8CF85EC809349
:10212000BC000E945C066B017C0180911B02823026
:1021300009F44CC080911A028F3F09F469C0809164
:102140001A02803209F466C080911A02803309F4C1
:1021500063C084E026C08091D2019091D301A09108
:10216000D401B091D501892B8A2B8B2B09F483CF15
:102170000E945C060091D2011091D3012091D401FC
:102180003091D5016C197D098E099F090617170733
:102190002807390708F06FCF8091D1010E94810F85
:1021A00085E0109269021092680210926B02DF9132
:1021B000CF911F910F91FF90EF90DF90CF900895F6
:1021C0009D9191938F5F6DCF85EEA9CF8091D201C4
:1021D0009091D301A091D401B091D501892B8A2B84
:1021E0008B2B09F4A2CF0E945C060091D2011091C2
:1021F000D3012091D4013091D5016C197D098E094C
:102200009F09061717072807390708F08ECFC4CF94
:1022100080E0C7CF82E0C5CF83E0C3CFEF92FF92CB
:102220000F931F93CF93DF937C01C62F8091B6024B
:102230009091B702009709F459C02091BA0231E099
:1022400030936B0220936A02109269021092680226
:10225000DC01ED91FC910190F081E02D60E00995A9
:102260008701EE24E394F12CD1E0C1508091B602B5
:102270009091B702CF3F91F1B0E2EB16F104D8F0A4
:102280000E9427108091B6029091B7022091BA0265
:10229000D0936B0220936A02109269021092680236
:1022A000DC01ED91FC910190F081E02D60E0099559
:1022B000EE24E394F12C8091B6029091B702F801DC
:1022C0006491DC01ED91FC910190F081E02D099584
:1022D000BFEFEB1AFB0A0F5F1F4FC7CFDF91CF9104
:1022E0001F910F91FF90EF900C942710E091C60280
:1022F000F091C70290818091CC02809589238083E0
:102300008701C15008F438C0F80184912091B402CB
:102310003091B502232B29F00E94310F0F5F1F4F20
:10232000F0CF28E030E040E8E091C202F091C30233
:102330009091CA02582F5423D9F05081952B908345
:10234000E091C402F091C50290815091CB02952B8F
:102350009083E091C402F091C50250819091CB022C
:10236000909595239083469521503109E9F6D6CF73
:10237000508190959523E3CFDF91CF911F910F91DD
:10238000FF90EF9008951F93CF93DF93EC018D8D15
:102390009E8D009721F1162F29A131E030936B0219
:1023A00020936A021092690210926802DC01ED919A
:1023B000FC910190F081E02D60E009958D8D9E8D5E
:1023C000DC01ED91FC910190F081E02D612F0995E8
:1023D0008D8D9E8DDF91CF911F910C942710ADA50F
:1023E000BEA59C918BA9809589238C938B8D9C8D08
:1023F000892B31F0862FDF91CF911F910C94310FF3
:1024000028E030E080E8A9A5BAA599A9462F48237D
:10241000C1F04C91942B9C93ABA5BCA59C914AA96F
:10242000942B9C93ABA5BCA54C919AA99095942311
:102430009C9386952150310931F7DF91CF911F91FF
:1024400008954C9190959423E6CFDF92EF92FF92FE
:102450000F931F93CF93DF938091B6029091B702B1
:10246000892B09F498C02091CE023091CF0240917F
:10247000D0025091D10260E074E284EF90E00E94BB
:10248000701C2051310941095109569547953795DE
:1024900027952093B80065E08AE89AE00E940E1123
:1024A00060919D02615089E992E00E94C3112091E0
:1024B0009F023091A002C901079697FD079633E06D
:1024C000959587953A95E1F720919D0230919E026E
:1024D000829F8001839F100D929F100D1124C09147
:1024E000B802D091B9028091B6029091B7020C0F58
:1024F0001D1F009709F48FC02091BA0231E030937C
:102500006B0220936A021092690210926802DC0149
:10251000ED91FC910190F081E02D60E40995EE24AD
:10252000E394F12CDD24D3948091B6029091B7020C
:102530000C171D0709F446C0B0E2EB16F104D8F001
:102540000E9427108091B6029091B7022091BA02A2
:10255000D0926B0220936A02109269021092680274
:10256000DC01ED91FC910190F081E02D60E4099592
:10257000EE24E394F12C8091B6029091B702699118
:10258000DC01ED91FC910190F081E02D0995BFEF08
:10259000EB1AFB0AC9CF8091B4029091B502892B46
:1025A00031F08091D7029091D8020E94380FE091CB
:1025B000C802F091C90290818091CD028095892353
:1025C000808369CF0E9427108091B6029091B70254
:1025D000892B09F461C02091D2023091D30240913D
:1025E000D4025091D50260E074E284EF90E00E9442
:1025F000701C20513109410951095695479537956D
:1026000027952093B800DF91CF911F910F91FF90F4
:10261000EF90DF900895E091C602F091C7028081AB
:102620009091CC02892B80830C171D0769F2899148
:102630002091B4023091B502232B19F00E94310F82
:10264000F3CF28E030E040E8E091C202F091C3020D
:102650009091CA02582F5423D9F05081952B908322
:10266000E091C402F091C50290815091CB02952B6C
:102670009083E091C402F091C50250819091CB0209
:10268000909595239083469521503109E9F6CCCF5A
:10269000508190959523E3CFE091C802F091C90253
:1026A00080819091CD02892B8083ADCF1F93CF93F2
:1026B000DF93EC01162F8D8D9E8D892BB1F12DA905
:1026C0003EA94FA958AD60E074E284EF90E00E940B
:1026D000701C20513109410951095695479537958C
:1026E00027952093B80066EA111167EACE010E948F
:1026F000C3118D8D9E8D892B41F129AD3AAD4BAD26
:102700005CAD60E074E284EF90E00E94701C2051A8
:1027100031094109510956954795379527952093D9
:10272000B800DF91CF911F9108958B8D9C8D892BDF
:1027300021F08EAD9FAD0E94380FEFA5F8A99081D2
:102740008CA9809589238083CECFEFA5F8A98081BD
:102750009CA9892B8083E5CF90E080E00895CF93FA
:10276000CFB7F89480919001811127C0E8E5FAE095
:102770008491ECE6FAE09491E82FF0E0EE0FFF1F71
:10278000E05DF54FA591B491EC91E92321F461E06E
:102790008AE00E94C70561E08AE00E9419068CB5B4
:1027A00080618CBD8CB580648CBD61E08DE00E9441
:1027B000190661E08BE00E941906809190018F5FFD
:1027C00080939001CFBFCF9108950F931F930091F5
:1027D000730210917402209175023091760240E0EC
:1027E00052E16AE770E090E0041715072607370703
:1027F00040F476956795579547959F5F9630A1F77A
:1028000097E0892F806A9095869591700E94380F85
:1028100080E01F910F910C94F505CF93C82F0E9473
:10282000E5138C2F80620E94310F80937702CF9145
:102830000C942E0FCF93DF93D82FC62F0E94E51351
:102840008D2F80620E94310F809377028C2F0E941F
:10285000310FDF91CF910C942E0FCF93C82F0E9490
:10286000E5138C2F0E94310F809377028FEF0E9427
:10287000310FC82F0E942E0F8C2FCF9108950F93E8
:102880001F93CF93182FC62F0E94E513812F8062CC
:102890000E94310F8093770206E011E0C15030F0C2
:1028A000F80181918F010E94310FF8CFCF911F91D4
:1028B0000F910C942E0F0E94E51380E50E94310FBA
:1028C0008093770283E70E94310F0C942E0F2091A2
:1028D0009F023091A002C901079697FD079623E059
:1028E000959587952A95E1F720919D0230919E025A
:1028F000829FA001839F500D929F500D112470E084
:1029000060E08091B8029091B9020C94E01DFC0146
:1029100001900020E9F73197AF01481B590BBC012A
:1029200089E992E00C94B5068F929F92AF92BF9284
:10293000CF92DF92EF92FF920F931F93CF93DF938B
:10294000CDB7DEB7A1970FB6F894DEBF0FBECDBFEF
:102950006C01990FEE08FF08F7FE47C06DE289E9A8
:1029600092E00E941D098C0122273327A9012C190E
:102970003D094E095F0919A2CE0181967C019AE0BA
:10298000892E912CA12CB12CCA01B901A501940169
:102990000E94701C605DF70162937F012115310573
:1029A0004105510589F790E080E0309719F0CF019B
:1029B0000E948714080F191F8AE491E00E9487146F
:1029C000800F911FA1960FB6F894DEBF0FBECDBF4A
:1029D000DF91CF911F910F91FF90EF90DF90CF90FB
:1029E000BF90AF909F908F900895A701960119A274
:1029F0008E010F5D1F4F8AE0C82ED12CE12CF12CE7
:102A0000CA01B901A70196010E94701C605DF8011E
:102A100062938F01211531054105510589F73097E2
:102A200029F0CF010E9487148C01C6CF10E000E08E
:102A3000C3CF0E94DB1D85ED8093BC008091D20145
:102A40009091D301A091D401B091D5010796A11D19
:102A5000B11D23E0B695A795979587952A95D1F74F
:102A60002091BC0024FD03C010921B0208954091E8
:102A7000D2015091D3016091D4017091D501452BC1
:102A8000462B472B69F30097A105B10541F02AE2D7
:102A90002A95F1F700C00197A109B109E1CF809112
:102AA000D1010C94810F1F920F920FB60F92112437
:102AB0002F933F938F939F93AF93BF938091600227
:102AC00090916102A0916202B091630230915F0225
:102AD00023E0230F2D3758F50196A11DB11D20933A
:102AE0005F028093600290936102A0936202B093B0
:102AF00063028091640290916502A0916602B09198
:102B000067020196A11DB11D809364029093650236
:102B1000A0936602B0936702BF91AF919F918F918E
:102B20003F912F910F900FBE0F901F90189526E8A0
:102B3000230F0296A11DB11DD2CF1F920F920FB687
:102B40000F9211242F933F934F935F936F937F9333
:102B50008F939F93AF93BF93EF93FF938091B900AF
:102B6000887F803609F44AC0F0F5883209F4A7C09E
:102B700018F5803109F49BC0B8F4882309F4F9C032
:102B8000883009F494C0FF91EF91BF91AF919F916C
:102B90008F917F916F915F914F913F912F910F9006
:102BA0000FBE0F901F901895883109F488C08032AD
:102BB00051F780931A0214C0803409F49DC040F488
:102BC0008033B9F38833F9F680931A0285ECB0C0EC
:102BD000803509F485C0883509F496C0883499F6A3
:102BE0000E941B15D0CF883909F48CC038F588377E
:102BF00029F050F4883611F0803729F683E080936D
:102C00001B021092190257C0883809F47BC0803922
:102C100019F0803809F0B7CF80911902803208F09E
:102C200071C0E091190281E08E0F809319028091AA
:102C3000BB00F0E0E750FE4F80833DC0803B39F0A1
:102C4000E0F4803A09F479C0883A09F09CCF84E036
:102C500080931B021092F8011092F701E091430259
:102C6000F091440209958091F70181110FC081E034
:102C70008093F7011092D70109C0803C09F4A6CFD8
:102C8000883C09F4A3CF883B09F07DCFE091F8019F
:102C900081E08E0F8093F801F0E0E952FE4F8081D1
:102CA0008093BB009091F8018091F70129C0809139
:102CB00040028093BB0085EC8093BC0064CF909170
:102CC0003F0280913E02981758F5E0913F0281E063
:102CD0008E0F80933F02F0E0E25EFD4F8081E9CFEE
:102CE000E0913F0281E08E0F80933F028091BB0014
:102CF000F0E0E25EFD4F808390913F0280913E02C2
:102D00009817C8F285E8D8CFE0913F0281E08E0F96
:102D100080933F028091BB00F0E0E25EFD4F808334
:102D200080911D0281115CCF81E080931C0284EAB6
:102D30008093BC0010921B0226CF85EC8093BC00D0
:102D400010921B0280911902803230F4E091190236
:102D5000F0E0E750FE4F10826091190270E0E091C0
:102D60004102F091420289EF91E009951092190217
:102D70000ACF10921A0234CFADE8B2E013961C923B
:102D80001E92129748EE53E060E070E014964D9367
:102D90005D936D937C93179780E191E011969C93DE
:102DA0008E93E9E9F2E01382128220E830E0358365
:102DB000248380E490E097838683318720879387FC
:102DC0008287168A158614861786168691E0958B5B
:102DD000948B2FEF3FEF338B228B318B208B978B94
:102DE000108E128E118E22E231E031832083148EF8
:102DF000138EB68FA58F10A2178E8FEF84A385A395
:102E000086A387A380A740E85AE166E070E045AB5F
:102E100056AB67AB70AF40EA56E861E070E041AF97
:102E200052AF63AF74AF80E586AF17AEEDE6F2E068
:102E30002AE030E03383228329E030E035832483A5
:102E400040E856E968E970E04683578360877187F8
:102E500080E28387128A138A85E0858B968B85E0D2
:102E600090E0A0E0B0E0848F958FA68FB78F8CE6BE
:102E700092E09183808314860895789484B582606B
:102E800084BD84B5816084BD85B5826085BD85B50E
:102E9000816085BD80916E00816080936E0010928C
:102EA0008100809181008260809381008091810007
:102EB0008160809381008091800081608093800098
:102EC0008091B10084608093B1008091B0008160F6
:102ED0008093B00080917A00846080937A00809122
:102EE0007A00826080937A0080917A00816080937A
:102EF0007A0080917A00806880937A001092C100F5
:102F00008091B8029091B902892B11F10E94671447
:102F100020919F023091A00280919D0290919E028B
:102F2000213231050CF09EC2B9016052710977FF60
:102F300002C06F5F7F4F759567958357910997FD25
:102F4000019600E210E023E730E04AE855E09DC238
:102F500020919F023091A002C901079697FD079624
:102F6000B3E095958795BA95E1F720919D02309150
:102F70009E02AC01429FC001439F900D529F900D55
:102F800011240E94B61C9093B9028093B802892B39
:102F900009F0BCCF60E082E00E94190660E083E0A7
:102FA0000E94190660E087E00E94190660E088E050
:102FB0000E9419060E94AF1380916F0290917002D7
:102FC0008F3F980709F498C02091710230917202E6
:102FD0002F3F320709F490C08217930741F061E058
:102FE0000E94190661E0809171020E94190680E03A
:102FF0000E94090681E00E94F50565E070E080E02E
:1030000090E00E9481066FE584E00E941A1486E039
:103010000E942D1445E550E060E070E04093850289
:10302000509386026093870270938802682F677DB1
:1030300086E00E941A1486E00E942D148DE10E9401
:103040002D14C82F0E945B148DE10E942D1491E075
:10305000C81390E090937F02882341F0C81302C008
:103060000E945B1460E08DE10E941A1410928102AC
:1030700060E08CE10E941A14109283026FE381E0F9
:103080000E941A1463E082E00E941A1480E2809386
:103090007802C1E1609178028C2F0E941A14CF5FF0
:1030A000C731C1F763E083E00E941A1485E0809382
:1030B00082026CE40E941A1460E787E00E941A14EE
:1030C00082EE0E940D1481EE0E940D146CE080E0EF
:1030D0000E941A1480E00E942D1480937E0281FDCC
:1030E0000BC0682F626060937E0280E00E941A1419
:1030F0008BE19EE40197F1F7609182028AE00E94E1
:103100003F146091820280E10E943F1480E00E949F
:10311000090680918502909186028230910538F0EF
:10312000880F991F880F991F05970197F1F78091D4
:103130008102882319F081EE0E940D1460917E02B5
:103140006E7F60937E0280E00E941A1482E00E94EB
:103150002D14EAE2FAE0E49161E070E001C0660F4C
:10316000EA95EAF7682B82E00E941A14222423943D
:10317000312C7AE0672E712C04E110E0C2E3D0E03C
:10318000CC24CA94E3E0DE2EE12CF12C5524539498
:103190000E9467140E9425128EE00E944A069093B6
:1031A0005E0280935D028FE00E944A069093520275
:1031B0008093510285E10E944A06909350028093C9
:1031C0004F0284E10E944A0690934E0280934D0282
:1031D00082E00E949E05BB24B394892B09F4B12C94
:1031E000B092490283E00E949E0599249394892B12
:1031F00009F4912C90924A0287E00E949E05AA242D
:10320000A394892B09F4A12CA092480288E00E9483
:103210009E0521E0892B09F420E0209347028B2DA5
:1032200090E0880F991F890D911D880F991FA80E96
:10323000B92EB11CAA0CBB1CA20EB11CB0924C0240
:10324000A0924B020E9467145092AD025092AE02BF
:103250003092AC022092AB023092AA022092A902D4
:103260000E9467141092A6021092A5027092A80202
:103270006092A7028DE491E00E94871480915D0224
:1032800090915E020E9494141092A6021092A502E0
:103290001093A8020093A70285E591E00E9487148D
:1032A00080914A0290E00E9494141092A60210921B
:1032B000A5024EE150E05093A8024093A7028CE58E
:1032C00091E00E9487148091490290E00E9494143A
:1032D0001092A6021092A50288E290E09093A802B4
:1032E0008093A70283E691E00E94871480915102A7
:1032F000909152020E9494147092A6026092A502CC
:10330000D093A802C093A7028AE691E00E94871496
:103310008091480290E00E949414E6E4F0E0F0937B
:10332000A602E093A502D093A802C093A70283E768
:1033300091E00E9487148091470290E00E949414CB
:10334000D093A602C093A5021092A8021092A702E1
:103350008BE791E00E94871480914F029091500278
:103360000E949414D093A602C093A5021093A802C1
:103370000093A70285E891E00E94871480914D0296
:1033800090914E020E9494140E94251260E971E00F
:1033900080E090E00E94810680915D0290915E0243
:1033A0009093540280935302809151029091520263
:1033B000909356028093550220914F023091500213
:1033C000A1E0BCEF0E94A11CA70196010E94511C24
:1033D00021503C4F4F4F5F4F30935802209357027C
:1033E00020914D0230914E02A1E0BCEF0E94A11C41
:1033F000A70196010E94511C21503C4F4F4F5F4F37
:1034000030935A022093590280914B0290914C02C2
:1034100090935C0280935B0280918302912C9AE0EE
:10342000892E811109C080917802882E8B3010F08E
:103430002AE0822E982E98180E94E51380EA0E94B6
:10344000310F8093770283E5A82E82E0B82E8A940C
:10345000FFEF8F1609F4CAC1F50181915F010E9447
:10346000310FF5CFB9016054710977FF02C06F5F6A
:103470007F4F759567958255910997FD019600E4F8
:1034800010E022E530E04AE657E0959587950E94E6
:10349000C90B82E08093BB028091B6029091B70283
:1034A000892B09F4DFC08CE38093BA0210924602A4
:1034B0001092450210926902109268020E94630FF6
:1034C00083EB96E0909344028093430284EB96E072
:1034D00090934202809341028091C10287FD1EC0F9
:1034E00061E00E94190661E08091C1020E94C70557
:1034F00061E070E080E090E00E94810660E08091F1
:10350000C1020E94C7056AE070E080E090E00E947E
:10351000810661E08091C1020E94C7058091B602D8
:103520009091B702892B09F42AC12091CE023091E3
:10353000CF024091D0025091D10260E074E284EF5A
:1035400090E00E94701C20513109410951095695A3
:103550004795379527952093B80064E086E895E075
:103560000E940E1160919F02615089E992E00E94D1
:10357000C31164E082E895E00E940E118091BB02C5
:1035800064E1813009F460E189E992E00E94C311AD
:1035900064E08EE795E00E940E118FE88093D602DA
:1035A00080919D0290919E028038910509F000C1A2
:1035B00080919F029091A0028034910509F008C18A
:1035C0008091BB02813009F4F1C08FEC8093D60268
:1035D000C2E16AED89E992E00E94C3116C2F89E98A
:1035E00092E00E94C31161E889E992E00E94C31150
:1035F0006091D60289E992E00E94C31169ED89E9E0
:1036000092E00E94C3118091BB0261EF813009F406
:1036100062E289E992E00E94C31166E088E795E0E2
:103620000E940E118091B6029091B702892B09F485
:10363000D3C02091D2023091D3024091D402509154
:10364000D50260E074E284EF90E00E94701C20518B
:10365000310941095109569547953795279520938A
:10366000B80098CC61E08091BF020E94190661E029
:103670008091C0020E9419068091BF02082E000CA2
:10368000990BFC01E25BF54FE491F0E0EE0FFF1FB8
:10369000E65CF54F259134913093C7022093C60222
:1036A000FC01EE59F54FE491E093CC028091C00209
:1036B000082E000C990BFC01E25BF54FE491F0E061
:1036C000EE0FFF1FE65CF54FA591B491B093C902D0
:1036D000A093C802FC01EE59F54FE491E093CD02AE
:1036E0008C91E82BEC938091B4029091B502892BD8
:1036F00019F00E94AF13F0CE61E08091BD020E94EC
:10370000190661E08091BE020E9419068091BD02F7
:10371000082E000C990BFC01E25BF54FE491F0E000
:10372000EE0FFF1FE65CF54F259134913093C302F5
:103730002093C202FC01EE59F54FE491E093CA02D6
:103740008091BE02082E000C990BFC01E25BF54F44
:10375000E491F0E0EE0FFF1FE65CF54FA591B49108
:10376000B093C502A093C402FC01EE59F54FE49159
:10377000E093CB028C91E095E823EC93ADCE809161
:10378000B4029091B502892B31F08091D7029091CB
:10379000D8020E94380FE091C802F091C9029081CE
:1037A0008091CD02809589238083D7CE8FE90ECF7B
:1037B0008036910569F480919F029091A002409714
:1037C00039F48091BB02813029F08FEA8093D602D0
:1037D000C2E0FFCE80E1FACFE091C802F091C902C9
:1037E00080819091CD02892B8083D4CB9A94FFEF76
:1037F0009F1621F080E00E94310FF8CF0E942E0F1B
:1038000081E00E9409068FB7F89480906002909042
:103810006102A0906202B09063028FBF8FEF0E949E
:103820000D14809177028073F1F42FB7F894809192
:10383000600290916102A0916202B09163022FBF79
:1038400088199909AA09BB0980369105A105B10516
:1038500028F35092840240E050E0452B09F498CCC4
:103860000E94000095CC80E00E94090660E787E096
:103870000E941A148091770284FFEDCF81EE0E949E
:103880000D14E9CF82E291E090939A02809399021D
:103890008091B8029091B902009711F00C94521DDA
:1038A0000895052E97FB1EF400940E94681C57FD96
:1038B00007D00E94701C07FC03D04EF40C94681CC7
:1038C00050954095309521953F4F4F4F5F4F08954C
:1038D00090958095709561957F4F8F4F9F4F08957C
:1038E000A1E21A2EAA1BBB1BFD010DC0AA1FBB1F04
:1038F000EE1FFF1FA217B307E407F50720F0A21B76
:10390000B30BE40BF50B661F771F881F991F1A94E2
:1039100069F760957095809590959B01AC01BD010C
:10392000CF010895A29FB001B39FC001A39F700D66
:10393000811D1124911DB29F700D811D1124911DB7
:1039400008950E94921C332312F48A1B9B0B0C9443
:10395000AB1C0E94921CB7FF0895821B930B089525
:10396000EE0FFF1F0590F491E02D09940F931F9324
:10397000CF93DF938230910510F482E090E0E091E4
:10398000DB02F091DC0230E020E0B0E0A0E0309714
:1039900099F42115310509F44AC0281B390B24304C
:1039A0003105D8F58A819B816115710589F1FB018B
:1039B00093838283FE0111C0408151810281138172
:1039C00048175907E0F04817590799F4109761F024
:1039D00012960C93129713961C933296CF01DF9197
:1039E000CF911F910F9108950093DB021093DC0299
:1039F000F4CF2115310551F04217530738F0A901D2
:103A0000DB019A01BD01DF01F801C1CFEF01F9CF60
:103A10009093DC028093DB02CDCFFE01E20FF31F17
:103A2000819391932250310939832883D7CF2091F4
:103A3000D9023091DA02232B41F420910201309116
:103A400003013093DA022093D902209100013091D2
:103A500001012115310541F42DB73EB74091040114
:103A600050910501241B350BE091D902F091DA0247
:103A7000E217F307A0F42E1B3F0B2817390778F045
:103A8000AC014E5F5F4F2417350748F04E0F5F1FA4
:103A90005093DA024093D902819391939FCFF0E043
:103AA000E0E09CCFCF93DF930097E9F0FC013297E1
:103AB00013821282A091DB02B091DC02ED0130E0B2
:103AC00020E01097A1F420813181820F931F209173
:103AD000D9023091DA022817390709F061C0F09352
:103AE000DA02E093D902DF91CF910895EA01CE176F
:103AF000DF07E8F54A815B819E0141155105B1F769
:103B0000E901FB83EA8349915991C40FD51FEC1752
:103B1000FD0761F4808191810296840F951FE90170
:103B200099838883828193819B838A83F0E0E0E09C
:103B300012968D919C9113970097B9F52D913C9118
:103B40001197CD010296820F931F2091D9023091D7
:103B5000DA022817390739F6309751F51092DC024E
:103B60001092DB02B093DA02A093D902BCCFD383C8
:103B7000C28340815181840F951FC817D90761F412
:103B80004E5F5F4F88819981480F591F5183408351
:103B90008A819B81938382832115310509F0B0CFFF
:103BA000F093DC02E093DB029ECFFD01DC01C0CF8D
:103BB00013821282D7CF81E090E0F8940C94E71D35
:103BC000DC0101C06D9341505040E0F7089515E0CD
:103BD000C9E4D5E004C0FE010E94B01C2196CA349D
:103BE000D107C9F7F894FFCF0000DD028000303024
:103BF0003337310000000000F80FCB0FAC13740511
:103C0000C40FB10FA20F000000001D09B506AC13D0
:103C10003B0F7E0E7405C20B9A0BB60BAA0B2A0C37
:103C20007405E3065613EE0D370EE30AC60A4E0A74
:103C3000EF090D0A006A6F7931203A2000643320C1
:103C40007062200064322070622000706F74203A2D
:103C50002000736C696465203A2000746F67676C9C
:103C6000652000782061786973203A20007920610E
:083C7000786973203A2000007E
:107E0000112484B714BE81FFF0D085E080938100F7
:107E100082E08093C00088E18093C10086E0809377
:107E2000C20080E18093C4008EE0C9D0259A86E02C
:107E300020E33CEF91E0309385002093840096BBD3
:107E4000B09BFECF1D9AA8958150A9F7CC24DD24C4
:107E500088248394B5E0AB2EA1E19A2EF3E0BF2EE7
:107E6000A2D0813461F49FD0082FAFD0023811F036
:107E7000013811F484E001C083E08DD089C08234E0
:107E800011F484E103C0853419F485E0A6D080C0E4
:107E9000853579F488D0E82EFF2485D0082F10E0AE
:107EA000102F00270E291F29000F111F8ED06801E7
:107EB0006FC0863521F484E090D080E0DECF843638
:107EC00009F040C070D06FD0082F6DD080E0C81688
:107ED00080E7D80618F4F601B7BEE895C0E0D1E017
:107EE00062D089930C17E1F7F0E0CF16F0E7DF06D8
:107EF00018F0F601B7BEE89568D007B600FCFDCFD4
:107F0000A601A0E0B1E02C9130E011968C91119780
:107F100090E0982F8827822B932B1296FA010C0160
:107F200087BEE89511244E5F5F4FF1E0A038BF0790
:107F300051F7F601A7BEE89507B600FCFDCF97BE46
:107F4000E89526C08437B1F42ED02DD0F82E2BD052
:107F50003CD0F601EF2C8F010F5F1F4F84911BD097
:107F6000EA94F801C1F70894C11CD11CFA94CF0C13
:107F7000D11C0EC0853739F428D08EE10CD085E9AC
:107F80000AD08FE07ACF813511F488E018D01DD067
:107F900080E101D065CF982F8091C00085FFFCCF94
:107FA0009093C60008958091C00087FFFCCF809118
:107FB000C00084FD01C0A8958091C6000895E0E648
:107FC000F0E098E1908380830895EDDF803219F02E
:107FD00088E0F5DFFFCF84E1DECF1F93182FE3DFCA
:107FE0001150E9F7F2DF1F91089580E0E8DFEE27F6
:047FF000FF270994CA
:027FFE00040479
:00000001FF
